:020000040000FA
:0600000027EF03F01200DF
:020006000000F8
:080008000F9E08D00F9E07AE09
:1000100005D0066C071EE86A07220F8E07C001F0A4
:1000200006C000F0136A126A8E0E026E036A4EEF6B
:1000300001F00D7E0F6A8AEC01F0A2EC01F00FB620
:1000400032EF01F00FA20AD00FAA03D00FBE32EF99
:1000500001F00FA43EEF01F03BEF01F00FAA05D035
:100060000FAC3EEF01F03BEF01F00FA00AD00FA85C
:1000700008D00FBE04D00FA402D047EF01F04BEF21
:1000800001F0126A036A0D50085C116E10E305C09E
:1000900013F006C000F007C001F008C010F00AC05D
:1000A00005F00BC006F00CC007F00F3A09D00AC0EB
:1000B00013F00BC000F00CC001F00DC010F0116C7B
:1000C0000F9E0FBC0F8E10C002F00FB07AEF01F040
:1000D0001A0E11607AEF01F0026A086A0FA408D0C4
:1000E000056C061E071E081EE86A06220722082263
:1000F0000FAC08D0136C001E011E021EE86A00221D
:1001000001220222046A115207E008340732063243
:1001100005320432112EF9D705501326065000225D
:10012000075001220850022204C012F00F9E02AEB6
:100130000BD0126C131E001E011E021EE86A132251
:100140000022012202220F8E02A006D0D8800132A6
:10015000003213321232102A10C002F04EEF01F0BA
:100160000F6A8AEC01F0A2EC01F00FB632EF01F059
:100170000FA205D00FBA32EF01F039EF01F00FBA3C
:1001800045EF01F00FA005D00FB832EF01F045EFB9
:1001900001F00FB839EF01F0036A7F0E0824026EF8
:1001A000E86A03220D50025EE86A035A1A0E106EC6
:1001B000086A126A136A006A016A0A50055E0B50E7
:1001C000065A0C50075A000E085A09E70A5005262D
:1001D0000B5006220C500722000E082201D0128A72
:1001E000D8900536063607360836D89012361336BC
:1001F00000360136102EE1D7075006100510D8A49E
:10020000128A4EEF01F00F6A8AEC01F00FB60DEF83
:1002100001F00FA20ED00FB405D07F0E076EFF0EB7
:10022000066E1FD0800E076E066A1BD0076A066A2C
:1002300018D00FB0FBD78F0E0860EDD77E0E086484
:10024000F5D78E0E085C05E0D89007320632082AF2
:10025000F8D70FA406D0066C071EE86A072207AE7F
:10026000E5D712007F0E086EFF0E076E066E056E54
:1002700012007F0E0FBEFF0E086E02D07F0E086EBA
:10028000800E076E066A056AF3D70FAE04D0800EA3
:10029000086E076AF7D7086A076AF4D7015000109A
:1002A00013101210F8E003BEF0D701BE0CD00250BC
:1002B0000310EBE0D89012361336003601360206F2
:1002C000D8A00306F2D70350D4E10228D2E012AE40
:1002D00011D07F0E121402E113A00CD0132AE86A89
:1002E0000022012207E3D880013200321332022AB1
:1002F0000228BFE00250C9E013C005F000C006F0BC
:100300000134076E0230086E0732089E0FBE088E59
:1003100038EF01F00736083602E30F840F7E06E15E
:100320000F80086A076A066A056A1200082803E057
:10033000D88007321200D890073202E10F821200F3
:100340000F8612000C360D3602E30F8C0F7E06E18D
:100350000F880D6A0C6A0B6A0A6A12000D2803E006
:10036000D8800C321200D8900C32EAE10F8A1200C9
:10037000D9CFE6FFE1CFD9FF0A0EE126D9CFE9FFB9
:10038000DACFEAFF310EEE6E320EEE6E330EEE6E07
:10039000340EEE6E350EEE6E360EEE6E370EEE6EDF
:1003A000380EEE6E390EEE6E300EEE6E956A936A72
:1003B00092808A94B8D8380EE66EE66A94D8E552F0
:1003C000E552B1D80E0EE66EE66A8DD8E552E552DA
:1003D000AAD8010EE66EE66A86D8E552E552A3D8A1
:1003E000060EE66EE66A7FD8E552E5529CD8800E8E
:1003F000E66EE66A78D8E552E55295D8010EC26EEF
:10040000C16A850EC06E8FD8C282C2B2FED7C350F9
:100410000001826F836BC450846F856B84C085F04C
:10042000846B82518411866F83518511876F86C0DA
:1004300006F087C007F004EC00F005C08AF006C0A3
:100440008BF007C08CF008C08DF00A6A0B6A480E6A
:100450000C6E430E0D6E8AC005F08BC006F08CC08A
:1004600007F08DC008F0B0EC00F005C08AF006C0BF
:100470008BF007C08CF008C08DF0800EE66EE66A47
:1004800032D8E552E552166A176A400E186E420ECF
:10049000196E8AC00AF08BC00BF08CC00CF08DC0B6
:1004A0000DF016C005F017C006F018C007F019C00F
:1004B00008F01AEC00F003EC01F006C014F007C0DD
:1004C00015F014C0E6FF15C0E6FF1DD8E552E55251
:1004D0009AD70A0EE15C02E2E16AE552E16EE5526A
:1004E000E7CFD9FF1200D9CFE6FFE1CFD9FFFD0E4C
:1004F000DB508C6E8A908A928A8415D88A94E55251
:10050000E7CFD9FF1200D9CFE6FFE1CFD9FFFD0E2B
:10051000DB508C6E8A808A928A8405D88A94E55250
:10052000E7CFD9FF1200D9CFE6FFE1CFD9FF040E04
:10053000E126DE6ADD6ADECF14F0DDCF15F0C80EED
:10054000145C000E15581AE2020EDB6A030EDB6A19
:10055000020EDBCF14F0030EDBCF15F0F40E145CAB
:10056000010E155806E2020EDB2A030E01E3DB2A18
:10057000EFD7DF2A010E01E3DB2ADDD7040EE15CB1
:1005800002E2E16AE552E16EE552E7CFD9FF1200DF
:10059000060EF66E000EF76E000EF86E00010900F2
:1005A000F550976F0900F550986F03E1976701D0F8
:1005B0003DD00900F550926F0900F550936F090086
:1005C000F550946F09000900F550E96E0900F550E7
:1005D000EA6E090009000900F550956F0900F55011
:1005E000966F09000900F6CF99F0F7CF9AF0F8CF8F
:1005F0009BF092C0F6FF93C0F7FF94C0F8FF000194
:10060000955302E1965307E00900F550EE6E950709
:10061000F8E29607F9D799C0F6FF9AC0F7FF9BC09A
:0E062000F8FF00019707000E985BBFD712008D
:02062E00000EBC
:10063000F36E00EE00F0060E01D81200EA6002D060
:0E064000EE6AFCD7F350E9601200EE6AFCD7B8
:02064E0015EEA7
:1006500000F025EE00F0F86A0F9CC8EC02F035ECD3
:0A06600003F0B8EC01F0FBD7120024
:02066A0012007C
:00000001FF
