:020000040000FA
:06000000FBEF00F012000E
:020006000000F8
:0800080094869488270EC86E4F
:10001000800EC76E280EC66E1200C5809EA6FED743
:100020001200C5829EA6FED71200C5849EA6FED7EA
:100030001200C59AC5889EA6FED71200C58AC5883B
:100040009EA6FED71200D9CFE6FFE1CFD9FFFE0E64
:10005000DB50C96EC9CF8AF09EA6FED7C550400BB3
:1000600001E0010E026E036A02C0F3FF03C0F4FF59
:1000700000D0E552E7CFD9FF1200C5869EA6FED775
:10008000C95000D01200D9CFE6FFE1CFD9FFC5DFBC
:10009000D00EE66ED8DFE552FE0EDBCFE6FFD3DFF3
:1000A000E552FD0EDBCFE6FFCEDFE552C2DFBDDF5E
:1000B000E552E7CFD9FF1200D9CFE6FFE1CFD9FF54
:1000C000ACDFD00EE66EBFDFE552FE0EDBCFE6FF03
:1000D000BADFE552A6DFD10EE66EB5DFE552CDDF21
:1000E00000018B6FA6DF9DDFA0DF00018B5100D0E8
:1000F000E552E7CFD9FF1200D9CFE6FFE1CFD9FF14
:10010000E652010EE66EE66ABEDFE552E552F9D729
:10011000E66AD2DFE55200018C6F200EAC6E0F0E46
:10012000AF6EAC8AAB8E8AC0ADFF9EA8FED7E552FB
:08013000E552E7CFD9FF1200F0
:08013800060EF66E000EF76ED4
:10014000000EF86E00010900F550856F0900F550AA
:10015000866F03E1856701D03DD00900F550806FBF
:100160000900F550816F0900F550826F0900090000
:10017000F550E96E0900F550EA6E09000900090022
:10018000F550836F0900F550846F09000900F6CF20
:1001900087F0F7CF88F0F8CF89F080C0F6FF81C0F4
:1001A000F7FF82C0F8FF0001835302E1845307E0A8
:1001B0000900F550EE6E8307F8E28407F9D787C08F
:1001C000F6FF88C0F7FF89C0F8FF00018507000E21
:0601D000865BBFD71200A0
:0A01D600000EF36E00EE00F0060EBE
:1001E00001D81200EA6002D0EE6AFCD7F350E96051
:0601F0001200EE6AFCD7CC
:0A01F60015EE00F025EE00F0F86AA7
:10020000019C9CEC00F009EC01F07CEC00F0FBD7C9
:020210001200DA
:020212001200D8
:00000001FF
