:020000040000FA
:06000000D7EF00F0120032
:0A0006000100CC0100008A00000098
:0400100006000000E6
:0C001400D9CFE6FFE1CFD9FF040EE126B2
:10002000DE6ADD6ADECF02F0DDCF03F0640E025C33
:10003000000E03581AE2020EDB6A030EDB6A020EA0
:10004000DBCF02F0030EDBCF03F0960E025C000E56
:10005000035806E2020EDB2A030E01E3DB2AEFD788
:10006000DF2A010E01E3DB2ADDD7040EE15C02E2A8
:10007000E16AE552E16EE552E7CFD9FF1200D9CF30
:10008000E6FFE1CFD9FFE652F66A040EF76EF86A92
:10009000440EF56E0D00F66A040EF76EF86AA68E31
:1000A000A69CA684F29E550EA76EAA0EA76EA682E7
:1000B0000000F28EA694E552E552E7CFD9FF120078
:1000C000948094829494949694988296829882A034
:1000D000828482B20BD0D3DF480EF55C03E18286C6
:1000E00099DF04D0480EF55C01E08288F0D7120059
:1000F000060EF66E000EF76E000EF86E0001090097
:10010000F550856F0900F550866F03E1856701D0D2
:100110003DD00900F550806F0900F550816F09004E
:10012000F550826F09000900F550E96E0900F5509D
:10013000EA6E090009000900F550836F0900F550C7
:10014000846F09000900F6CF87F0F7CF88F0F8CF69
:1001500089F080C0F6FF81C0F7FF82C0F8FF000180
:10016000835302E1845307E00900F550EE6E8307E4
:10017000F8E28407F9D787C0F6FF88C0F7FF89C087
:0E018000F8FF00018507000E865BBFD7120056
:02018E00000E61
:10019000F36E00EE00F0060E01D81200EA6002D005
:0E01A000EE6AFCD7F350E9601200EE6AFCD75D
:0201AE0015EE4C
:1001B00000F025EE00F0F86A019C78EC00F0E5EC28
:0A01C00000F060EC00F0FBD7120025
:0201CA00120021
:0401CC00444950450D
:0201D000534892
:00000001FF
